:020000040000FA
:060000000A128A1110280B
:10000800FE00030E83120313AC000408AD000A08B7
:10001800AE000A128A1129280A128A11132883139A
:100028002A30FD000230FE000230FF00203084003C
:100038000A128A11F3210A128A11AF01B001B10123
:10004800FD0183010A128A11A2290B1D2C282D28D3
:100058006828D9308100542888012F08203E840060
:1000680083130008850008150130AA002A08FD003E
:10007800672888013008203E840083130008850023
:1000880088140230AA002A08FD0067288801310870
:10009800203E84008313000885000814FD016728AA
:1000A8007D08AA00AB012B08003A03195C286728D1
:1000B8002A08003A03193028013A03193D28033A5F
:1000C80003194A2867280B110B1C6B286C288728F2
:1000D80006186F28702874280130AA002A08870794
:1000E8008618772878287A28013087020708AA0016
:1000F800AB012A08F9002B08FA000A128A115221CA
:100108000A128A110B10831203132E088A002D0875
:1001180084002C0E8300FE0E7E0E0900F601F11FEE
:10012800962897289E28F009F109F00A0319F10A80
:10013800F601F60AF31FA128A228AB28F209F30951
:10014800F20A0319F30A0130F4007408F606F701FD
:10015800F801700871040319B228B328EA28F501D8
:10016800F50AC12801300310F00DF10DFF3E031D03
:10017800B7280130F4007408F507F11FC428C52812
:10018800B62801300310F70DF80DFF3E031DC628F1
:1001980071087302031DD22870087202031CD52847
:1001A800D628DD287008F2027108031CF303F30255
:1001B800771401300310F10CF00CFF3E031DDE280C
:1001C8000130F502031DE928EA28C5287608031935
:1001D800EE28EF28F428F709F809F70A0319F80AAE
:1001E8007808F1007708F0000800F601F31FFD28F1
:1001F800FE280529F209F309F20A0319F30AF601A0
:10020800F60AF11F082909290E29F009F109F00A4F
:100218000319F10A700871040319132914294329D1
:10022800F501F50A222901300310F00DF10DFF3E0A
:10023800031D18290130F4007408F507F11F25295A
:100248002629172971087302031D2C2970087202C8
:10025800031C2F29302936297008F2027108031C63
:10026800F303F30201300310F10CF00CFF3E031D01
:1002780037290130F502031D42294329262976082A
:100288000319472948294D29F209F309F20A0319E4
:10029800F30A7308F1007208F00008006430F000F7
:1002A8000030F1007A08F3007908F2000A128A1186
:1002B80092200A128A117008FB007B08831203132C
:1002C800B1003108FB00FC017B08F0007C08F1005C
:1002D8006430F2000030F3000A128A11CA210A12AF
:1002E8008A117008F9027108031CFA03FA020A302D
:1002F800F0000030F1007A08F3007908F2000A12E1
:100308008A1192200A128A117008FB007B08831256
:100318000313B0000A30F0000030F1007A08F3004F
:100328007908F2000A128A11F9200A128A11700853
:10033800FB007B0883120313AF0008000330831609
:100348000313860087018801850183160317880136
:10035800890183120313870188018501831603131A
:1003680081130108F8390638810081128111D930CA
:1003780083120313810003308316031396008B172F
:100388008B168B15C6290A128A111028F401F5015B
:10039800701CCF29D029D6297208F4070318F50A4A
:1003A8007308F50701300310F20DF30DFF3E031D2E
:1003B800D72901300310F10CF00CFF3E031DDE2994
:1003C80070087104031DE929EA29CC297508F10090
:1003D8007408F00008007E088A007F0882000A126C
:1003E8008A11EF210A128A118000840A04087D0606
:1003F80003190034FF0A0319FE0AF3293F340634AF
:100408005B344F3466346D347D3407347F346F3455
:04400E00D420FF3F7C
:00000001FF
